{
  "contractName": "LuckyDraw",
  "abi": [
    {
      "inputs": [],
      "stateMutability": "nonpayable",
      "type": "constructor"
    },
    {
      "anonymous": false,
      "inputs": [
        {
          "indexed": true,
          "internalType": "address",
          "name": "winner",
          "type": "address"
        },
        {
          "indexed": false,
          "internalType": "uint256",
          "name": "prizeAmount",
          "type": "uint256"
        }
      ],
      "name": "DrawCompleted",
      "type": "event"
    },
    {
      "anonymous": false,
      "inputs": [
        {
          "indexed": false,
          "internalType": "address[]",
          "name": "participants",
          "type": "address[]"
        }
      ],
      "name": "MSG",
      "type": "event"
    },
    {
      "anonymous": false,
      "inputs": [
        {
          "indexed": true,
          "internalType": "address",
          "name": "buyer",
          "type": "address"
        },
        {
          "indexed": false,
          "internalType": "uint256",
          "name": "amount",
          "type": "uint256"
        }
      ],
      "name": "TicketPurchased",
      "type": "event"
    },
    {
      "inputs": [],
      "name": "isDrawing",
      "outputs": [
        {
          "internalType": "bool",
          "name": "",
          "type": "bool"
        }
      ],
      "stateMutability": "view",
      "type": "function",
      "constant": true
    },
    {
      "inputs": [],
      "name": "owner",
      "outputs": [
        {
          "internalType": "address",
          "name": "",
          "type": "address"
        }
      ],
      "stateMutability": "view",
      "type": "function",
      "constant": true
    },
    {
      "inputs": [
        {
          "internalType": "uint256",
          "name": "",
          "type": "uint256"
        }
      ],
      "name": "participants",
      "outputs": [
        {
          "internalType": "address",
          "name": "",
          "type": "address"
        }
      ],
      "stateMutability": "view",
      "type": "function",
      "constant": true
    },
    {
      "inputs": [
        {
          "internalType": "address",
          "name": "",
          "type": "address"
        }
      ],
      "name": "tempParticipantMap",
      "outputs": [
        {
          "internalType": "uint256",
          "name": "",
          "type": "uint256"
        }
      ],
      "stateMutability": "view",
      "type": "function",
      "constant": true
    },
    {
      "inputs": [],
      "name": "ticketPrice",
      "outputs": [
        {
          "internalType": "uint256",
          "name": "",
          "type": "uint256"
        }
      ],
      "stateMutability": "view",
      "type": "function",
      "constant": true
    },
    {
      "inputs": [
        {
          "internalType": "address",
          "name": "",
          "type": "address"
        }
      ],
      "name": "ticketsBought",
      "outputs": [
        {
          "internalType": "uint256",
          "name": "",
          "type": "uint256"
        }
      ],
      "stateMutability": "view",
      "type": "function",
      "constant": true
    },
    {
      "inputs": [],
      "name": "totalPrizeAmount",
      "outputs": [
        {
          "internalType": "uint256",
          "name": "",
          "type": "uint256"
        }
      ],
      "stateMutability": "view",
      "type": "function",
      "constant": true
    },
    {
      "inputs": [],
      "name": "totalTicketsBought",
      "outputs": [
        {
          "internalType": "uint256",
          "name": "",
          "type": "uint256"
        }
      ],
      "stateMutability": "view",
      "type": "function",
      "constant": true
    },
    {
      "inputs": [],
      "name": "winner",
      "outputs": [
        {
          "internalType": "address",
          "name": "",
          "type": "address"
        }
      ],
      "stateMutability": "view",
      "type": "function",
      "constant": true
    },
    {
      "stateMutability": "payable",
      "type": "receive",
      "payable": true
    },
    {
      "inputs": [
        {
          "internalType": "uint256",
          "name": "_numberOfTickets",
          "type": "uint256"
        }
      ],
      "name": "buyTickets",
      "outputs": [],
      "stateMutability": "payable",
      "type": "function",
      "payable": true
    },
    {
      "inputs": [],
      "name": "startDrawing",
      "outputs": [],
      "stateMutability": "nonpayable",
      "type": "function"
    },
    {
      "inputs": [
        {
          "internalType": "uint256",
          "name": "_amount",
          "type": "uint256"
        }
      ],
      "name": "withdrawFunds",
      "outputs": [],
      "stateMutability": "nonpayable",
      "type": "function"
    },
    {
      "inputs": [],
      "name": "echoParticipants",
      "outputs": [],
      "stateMutability": "nonpayable",
      "type": "function"
    }
  ],
  "bytecode": "0x6080604052670de0b6b3a764000060015534801561001c57600080fd5b50336000806101000a81548173ffffffffffffffffffffffffffffffffffffffff021916908373ffffffffffffffffffffffffffffffffffffffff1602179055506114508061006c6000396000f3fe6080604052600436106100c65760003560e01c806384bd32641161007f578063b39eb62411610059578063b39eb62414610252578063d87a702c1461027d578063dfbf53ae146102a8578063eb0ca8fd146102d3576100cd565b806384bd3264146101d357806387f01329146102105780638da5cb5b14610227576100cd565b80631209b1f6146100d2578063155dd5ee146100fd5780631ce91923146101265780632f3666371461013d57806335c1d34914610159578063480b44c814610196576100cd565b366100cd57005b600080fd5b3480156100de57600080fd5b506100e76102fe565b6040516100f4919061114f565b60405180910390f35b34801561010957600080fd5b50610124600480360381019061011f9190610cf5565b610304565b005b34801561013257600080fd5b5061013b61043f565b005b61015760048036038101906101529190610cf5565b610479565b005b34801561016557600080fd5b50610180600480360381019061017b9190610cf5565b6106ad565b60405161018d9190611017565b60405180910390f35b3480156101a257600080fd5b506101bd60048036038101906101b89190610ccc565b6106ec565b6040516101ca919061114f565b60405180910390f35b3480156101df57600080fd5b506101fa60048036038101906101f59190610ccc565b610704565b604051610207919061114f565b60405180910390f35b34801561021c57600080fd5b5061022561071c565b005b34801561023357600080fd5b5061023c610a00565b6040516102499190611017565b60405180910390f35b34801561025e57600080fd5b50610267610a24565b604051610274919061114f565b60405180910390f35b34801561028957600080fd5b50610292610a2a565b60405161029f919061114f565b60405180910390f35b3480156102b457600080fd5b506102bd610a30565b6040516102ca9190611017565b60405180910390f35b3480156102df57600080fd5b506102e8610a56565b6040516102f59190611054565b60405180910390f35b60015481565b60008054906101000a900473ffffffffffffffffffffffffffffffffffffffff1673ffffffffffffffffffffffffffffffffffffffff163373ffffffffffffffffffffffffffffffffffffffff1614610392576040517f08c379a00000000000000000000000000000000000000000000000000000000081526004016103899061110f565b60405180910390fd5b478111156103d5576040517f08c379a00000000000000000000000000000000000000000000000000000000081526004016103cc9061112f565b60405180910390fd5b60008054906101000a900473ffffffffffffffffffffffffffffffffffffffff1673ffffffffffffffffffffffffffffffffffffffff166108fc829081150290604051600060405180830381858888f1935050505015801561043b573d6000803e3d6000fd5b5050565b7ffe414e02a487798cb24434c057dc4ecf1f46db6138d85466288120202dc5323d600760405161046f9190611032565b60405180910390a1565b600460149054906101000a900460ff16156104c9576040517f08c379a00000000000000000000000000000000000000000000000000000000081526004016104c09061108f565b60405180910390fd5b806001546104d7919061120f565b341015610519576040517f08c379a0000000000000000000000000000000000000000000000000000000008152600401610510906110cf565b60405180910390fd5b600081600154610529919061120f565b905081600560003373ffffffffffffffffffffffffffffffffffffffff1673ffffffffffffffffffffffffffffffffffffffff168152602001908152602001600020600082825461057a91906111b9565b92505081905550816002600082825461059391906111b9565b9250508190555080600360008282546105ac91906111b9565b925050819055506001600660003373ffffffffffffffffffffffffffffffffffffffff1673ffffffffffffffffffffffffffffffffffffffff168152602001908152602001600020819055506007339080600181540180825580915050600190039060005260206000200160009091909190916101000a81548173ffffffffffffffffffffffffffffffffffffffff021916908373ffffffffffffffffffffffffffffffffffffffff1602179055503373ffffffffffffffffffffffffffffffffffffffff167f0668f5b446eb814fe35b3206f43f14bd8567ba04ddaf7a3ee56516929ab22ccb836040516106a1919061114f565b60405180910390a25050565b600781815481106106bd57600080fd5b906000526020600020016000915054906101000a900473ffffffffffffffffffffffffffffffffffffffff1681565b60066020528060005260406000206000915090505481565b60056020528060005260406000206000915090505481565b60008054906101000a900473ffffffffffffffffffffffffffffffffffffffff1673ffffffffffffffffffffffffffffffffffffffff163373ffffffffffffffffffffffffffffffffffffffff16146107aa576040517f08c379a00000000000000000000000000000000000000000000000000000000081526004016107a19061110f565b60405180910390fd5b600460149054906101000a900460ff16156107fa576040517f08c379a00000000000000000000000000000000000000000000000000000000081526004016107f19061108f565b60405180910390fd5b60006002541161083f576040517f08c379a0000000000000000000000000000000000000000000000000000000008152600401610836906110af565b60405180910390fd5b6001600460146101000a81548160ff02191690831515021790555060006002544260014361086d9190611269565b4060405160200161087f929190610feb565b6040516020818303038152906040528051906020012060001c6108a2919061133d565b90506108ad81610a69565b600460006101000a81548173ffffffffffffffffffffffffffffffffffffffff021916908373ffffffffffffffffffffffffffffffffffffffff160217905550600460009054906101000a900473ffffffffffffffffffffffffffffffffffffffff1673ffffffffffffffffffffffffffffffffffffffff166108fc6003549081150290604051600060405180830381858888f19350505050158015610957573d6000803e3d6000fd5b50600060028190555060006003819055506000600460146101000a81548160ff02191690831515021790555061098b610b73565b600460009054906101000a900473ffffffffffffffffffffffffffffffffffffffff1673ffffffffffffffffffffffffffffffffffffffff167fc8d9c06e6b370a882d253a9eab335ea149efddabf9e97685220258c6fc5726fb6003546040516109f5919061114f565b60405180910390a250565b60008054906101000a900473ffffffffffffffffffffffffffffffffffffffff1681565b60025481565b60035481565b600460009054906101000a900473ffffffffffffffffffffffffffffffffffffffff1681565b600460149054906101000a900460ff1681565b60006002548210610aaf576040517f08c379a0000000000000000000000000000000000000000000000000000000008152600401610aa6906110ef565b60405180910390fd5b60006007805490501415610af8576040517f08c379a0000000000000000000000000000000000000000000000000000000008152600401610aef9061106f565b60405180910390fd5b6007808054905083610b0a919061133d565b81548110610b41577f4e487b7100000000000000000000000000000000000000000000000000000000600052603260045260246000fd5b9060005260206000200160009054906101000a900473ffffffffffffffffffffffffffffffffffffffff169050919050565b600067ffffffffffffffff811115610bb4577f4e487b7100000000000000000000000000000000000000000000000000000000600052604160045260246000fd5b604051908082528060200260200182016040528015610be25781602001602082028036833780820191505090505b5060079080519060200190610bf8929190610bfb565b50565b828054828255906000526020600020908101928215610c74579160200282015b82811115610c735782518260006101000a81548173ffffffffffffffffffffffffffffffffffffffff021916908373ffffffffffffffffffffffffffffffffffffffff16021790555091602001919060010190610c1b565b5b509050610c819190610c85565b5090565b5b80821115610c9e576000816000905550600101610c86565b5090565b600081359050610cb1816113ec565b92915050565b600081359050610cc681611403565b92915050565b600060208284031215610cde57600080fd5b6000610cec84828501610ca2565b91505092915050565b600060208284031215610d0757600080fd5b6000610d1584828501610cb7565b91505092915050565b6000610d2a8383610d36565b60208301905092915050565b610d3f816112bd565b82525050565b610d4e816112bd565b82525050565b6000610d5f8261117f565b610d698185611197565b9350610d748361116a565b8060005b83811015610dac57610d89826113cc565b610d938882610d1e565b9750610d9e8361118a565b925050600181019050610d78565b5085935050505092915050565b610dc2816112cf565b82525050565b610dd9610dd4826112db565b611329565b82525050565b6000610dec6015836111a8565b91507f4e6f207061727469636970616e747320666f756e6400000000000000000000006000830152602082019050919050565b6000610e2c6016836111a8565b91507f64726177696e6720697320696e2070726f6772657373000000000000000000006000830152602082019050919050565b6000610e6c6015836111a8565b91507f4e6f207469636b65747320626f756768742079657400000000000000000000006000830152602082019050919050565b6000610eac6012836111a8565b91507f496e73756666696369656e742066756e647300000000000000000000000000006000830152602082019050919050565b6000610eec6016836111a8565b91507f4f766572207468616e207061727469636970616e7473000000000000000000006000830152602082019050919050565b6000610f2c602d836111a8565b91507f61757468206661696c642c206f6e6c7920636f6e7472616374206f776e65722060008301527f63616e2063616c6c2074686973000000000000000000000000000000000000006020830152604082019050919050565b6000610f92601d836111a8565b91507f496e73756666696369656e7420636f6e74726163742062616c616e63650000006000830152602082019050919050565b610fce81611305565b82525050565b610fe5610fe082611305565b611333565b82525050565b6000610ff78285610fd4565b6020820191506110078284610dc8565b6020820191508190509392505050565b600060208201905061102c6000830184610d45565b92915050565b6000602082019050818103600083015261104c8184610d54565b905092915050565b60006020820190506110696000830184610db9565b92915050565b6000602082019050818103600083015261108881610ddf565b9050919050565b600060208201905081810360008301526110a881610e1f565b9050919050565b600060208201905081810360008301526110c881610e5f565b9050919050565b600060208201905081810360008301526110e881610e9f565b9050919050565b6000602082019050818103600083015261110881610edf565b9050919050565b6000602082019050818103600083015261112881610f1f565b9050919050565b6000602082019050818103600083015261114881610f85565b9050919050565b60006020820190506111646000830184610fc5565b92915050565b60008190508160005260206000209050919050565b600081549050919050565b6000600182019050919050565b600082825260208201905092915050565b600082825260208201905092915050565b60006111c482611305565b91506111cf83611305565b9250827fffffffffffffffffffffffffffffffffffffffffffffffffffffffffffffffff038211156112045761120361136e565b5b828201905092915050565b600061121a82611305565b915061122583611305565b9250817fffffffffffffffffffffffffffffffffffffffffffffffffffffffffffffffff048311821515161561125e5761125d61136e565b5b828202905092915050565b600061127482611305565b915061127f83611305565b9250828210156112925761129161136e565b5b828203905092915050565b600073ffffffffffffffffffffffffffffffffffffffff82169050919050565b60006112c8826112e5565b9050919050565b60008115159050919050565b6000819050919050565b600073ffffffffffffffffffffffffffffffffffffffff82169050919050565b6000819050919050565b600061132261131d836113df565b61129d565b9050919050565b6000819050919050565b6000819050919050565b600061134882611305565b915061135383611305565b9250826113635761136261139d565b5b828206905092915050565b7f4e487b7100000000000000000000000000000000000000000000000000000000600052601160045260246000fd5b7f4e487b7100000000000000000000000000000000000000000000000000000000600052601260045260246000fd5b60006113d8825461130f565b9050919050565b60008160001c9050919050565b6113f5816112bd565b811461140057600080fd5b50565b61140c81611305565b811461141757600080fd5b5056fea2646970667358221220e2621088d22865d1370ed995ba000c25887d16c74038f09cc63f4ac1ed96867e64736f6c63430008000033",
  "immutableReferences": {},
  "source": "// SPDX-License-Identifier: MIT\npragma solidity ^0.8.0;\n\ncontract LuckyDraw {\n    address public owner;\n    uint256 public ticketPrice = 1 ether;\n    uint256 public totalTicketsBought;\n    uint256 public totalPrizeAmount;\n    address public winner;\n    bool public isDrawing;\n\n    mapping(address => uint256) public ticketsBought;\n    mapping(address => uint256) public tempParticipantMap;\n    address[] public participants; // Array to store participant addresses just for temp\n\n    event TicketPurchased(address indexed buyer, uint256 amount);\n    event DrawCompleted(address indexed winner, uint256 prizeAmount);\n    event MSG(address[] participants);\n\n    constructor() {\n        owner = msg.sender;\n    }\n\n    modifier onlyOwner() {\n        require(msg.sender == owner, \"auth faild, only contract owner can call this\");\n        _;\n    }\n\n    modifier notDrawing() {\n        require(!isDrawing, \"drawing is in progress\");\n        _;\n    }\n\n    function buyTickets(uint256 _numberOfTickets) external payable notDrawing {\n        require(msg.value >= ticketPrice * _numberOfTickets, \"Insufficient funds\");\n    \n        uint256 totalPrice = ticketPrice * _numberOfTickets;\n        \n        // payable(owner).transfer(totalPrice); // fee?\n        \n        ticketsBought[msg.sender] += _numberOfTickets;\n        totalTicketsBought += _numberOfTickets;\n        totalPrizeAmount += totalPrice;\n\n        tempParticipantMap[msg.sender] = 1;\n\n        participants.push(msg.sender);\n\n        emit TicketPurchased(msg.sender, _numberOfTickets);\n    }\n\n    function startDrawing() external onlyOwner notDrawing {\n        require(totalTicketsBought > 0, \"No tickets bought yet\");\n\n        isDrawing = true;\n        uint256 randomTicketNumber = uint256(keccak256(abi.encodePacked(block.timestamp, blockhash(block.number - 1)))) % totalTicketsBought;\n\n        winner = getWinnerParticipant(randomTicketNumber);\n        payable(winner).transfer(totalPrizeAmount); // Transfer the prize to the winner\n\n        // Reset for next round\n        totalTicketsBought = 0;\n        totalPrizeAmount = 0;\n        isDrawing = false;\n        clearParticipants();\n\n        emit DrawCompleted(winner, totalPrizeAmount);\n    }\n\n    function getWinnerParticipant(uint256 index) private view returns (address) {\n        require(index < totalTicketsBought, \"Over than participants\");\n\n        // If no participants found, return the first participant's address from the array\n        if (participants.length == 0) {\n            revert(\"No participants found\");\n        }\n\n        return participants[index % participants.length];\n    }\n\n    function withdrawFunds(uint256 _amount) external onlyOwner {\n        require(_amount <= address(this).balance, \"Insufficient contract balance\");\n        payable(owner).transfer(_amount);\n    }\n\n    function clearParticipants() private {\n        participants = new address[](0);\n    }\n\n    function echoParticipants() public {\n        emit MSG(participants);\n    }\n\n    receive() external payable {}\n}\n",
  "sourcePath": "/Users/adi/repo/blocker/smartContractDemo/LuckyDraw/contracts/LuckyDraw.sol",
  "compiler": {
    "name": "solc",
    "version": "0.8.0+commit.c7dfd78e.Emscripten.clang"
  },
  "schemaVersion": "3.4.16",
  "updatedAt": "2024-02-29T14:06:53.544Z",
  "networkType": "ethereum",
  "devdoc": {
    "kind": "dev",
    "methods": {},
    "version": 1
  },
  "userdoc": {
    "kind": "user",
    "methods": {},
    "version": 1
  }
}