{
  "contractName": "HelloWorld",
  "abi": [
    {
      "inputs": [],
      "stateMutability": "nonpayable",
      "type": "constructor"
    },
    {
      "inputs": [],
      "name": "hi",
      "outputs": [
        {
          "internalType": "bool",
          "name": "sufficient",
          "type": "bool"
        }
      ],
      "stateMutability": "nonpayable",
      "type": "function"
    }
  ],
  "bytecode": "0x608060405234801561001057600080fd5b5062018333600060405161002390610091565b9081526020016040518091039020819055506100a6565b600081905092915050565b7f776f726c64000000000000000000000000000000000000000000000000000000600082015250565b600061007b60058361003a565b915061008682610045565b600582019050919050565b600061009c8261006e565b9150819050919050565b610151806100b56000396000f3fe608060405234801561001057600080fd5b506004361061002b5760003560e01c8063a99dca3f14610030575b600080fd5b61003861004e565b6040516100459190610094565b60405180910390f35b6000607b600060405161006090610106565b9081526020016040518091039020819055506001905090565b60008115159050919050565b61008e81610079565b82525050565b60006020820190506100a96000830184610085565b92915050565b600081905092915050565b7f776f726c64000000000000000000000000000000000000000000000000000000600082015250565b60006100f06005836100af565b91506100fb826100ba565b600582019050919050565b6000610111826100e3565b915081905091905056fea2646970667358221220593ffa9532a2fc493446a5f1a3c3c5ac66bc72bdb4c9908414803f17ac4bdd0a64736f6c63430008130033",
  "immutableReferences": {},
  "source": "// SPDX-License-Identifier: MIT\npragma solidity >=0.4.22 <0.9.0;\n\ncontract HelloWorld {\n    mapping (string => int256) test;\n\n    constructor(){\n        test[\"world\"] = 99123;\n    }\n\n    function hi() public returns (bool sufficient) {\n        test[\"world\"] = 123;\n        return true;\n    }\n}\n",
  "sourcePath": "/Users/adi/repo/blocker/smartContractDemo/HelloWorld/contracts/HelloWorld.sol",
  "compiler": {
    "name": "solc",
    "version": "0.8.19+commit.7dd6d404.Emscripten.clang"
  },
  "schemaVersion": "3.4.16",
  "updatedAt": "2024-02-11T17:06:31.525Z",
  "networkType": "ethereum",
  "devdoc": {
    "kind": "dev",
    "methods": {},
    "version": 1
  },
  "userdoc": {
    "kind": "user",
    "methods": {},
    "version": 1
  }
}